:100000000070002011040000170800001D08000007
:1000100023080000290800002F080000000000004D
:100020000000000000000000000000003508000093
:100030003B080000000000004108000047080000E5
:10004000110800001108000011080000110800004C
:10005000110800001108000011080000110800003C
:10006000110800001108000011080000110800002C
:10007000110800001108000011080000110800001C
:1003F00011080000110800001108000000000000B2
:10040000FFFFFFFFFFFFFFFFFFFFFFFFFE7FFFFF7D
:1004100080B500AF00F006F800F00AF800F044F8EC
:1004200000BF80BD80B400AF00BFBD4680BC704738
:1004300080B400AF00BFBD4680BC704780B483B0BD
:1004400000AF786005E07B68013B7B60054A7B6814
:1004500013607B68002BF6D100BF00BF0C37BD4690
:1004600080BC70470080FF1F80B584B000AF48F2A9
:100470000443FB60FB681B68BB60BB687B604FF09C
:10048000E0234FF40442C3F8082D064B3B603B6861
:1004900083F3088800BF7B68984700BF1037BD46CC
:1004A00080BD00BF0070002080B582B000AF00F0BA
:1004B000CDF900F083F90B210C4800F01DF80B2159
:1004C0000B4800F057F90023FB7109E00B210848A5
:1004D00000F014F90748FFF7B1FFFB790133FB7116
:1004E000FB79092BF2D9FFF7BFFFECE7009004403E
:1004F00000F00F40F07E0E0080B483B000AF786053
:100500000B46FB70FA787B684FF4807143F8221039
:1005100000BF0C37BD4680BC7047000080B400AF00
:1005200000BF0C4B1B780B4B1B78DBB2094A43F026
:100530003003DBB21370074B1B78DBB2054A63F064
:100540007F03DBB2137000BF024B1B7800BFBD46B8
:1005500080BC70470000024080B400AF00BF044B75
:100560001B78034B00221A7100BFBD4680BC704748
:100570000000024080B400AF00BF044B1B78034B67
:1005800001221A7100BFBD4680BC704700000240C6
:1005900080B400AF00BF044B1B78034B02221A71DA
:1005A00000BFBD4680BC70470000024080B500AF70
:1005B00000BF044B1B78034B07221A71FFF7AEFFF5
:1005C00000BF80BD0000024080B400AF00BF044BFC
:1005D0001B78034B08221A7100BFBD4680BC7047D0
:1005E0000000024080B400AF00BF044B1B78034BF7
:1005F00009221A7100BFBD4680BC7047000002404E
:1006000080B400AF00BF044B1B78034B0B221A7160
:1006100000BFBD4680BC70470000024080B400AF00
:1006200000BF044B1B78034B40221A7100BFBD462C
:1006300080BC70470000024080B400AF00BF044B94
:100640001B78034B41221A7100BFBD4680BC704726
:100650000000024080B400AF00BF044B1B78034B86
:1006600043221A7100BFBD4680BC704700000240A3
:1006700080B400AF00BF044B1B78034B44221A71B7
:1006800000BFBD4680BC70470000024080B400AF90
:1006900000BF044B1B78034B45221A7100BFBD46B7
:1006A00080BC70470000024080B400AF00BF044B24
:1006B0001B78034B49221A7100BFBD4680BC7047AE
:1006C0000000024080B400AF00BF044B1B78034B16
:1006D00080221A7100BFBD4680BC704700000240F6
:1006E00080B400AF00BF044B1B78034B81221A710A
:1006F00000BFBD4680BC70470000024080B483B09C
:1007000000AF78600B46FB707B68DB68FA780121EC
:1007100001FA02F21A437B68DA6000BF0C37BD466B
:1007200080BC704780B483B000AF78600B46FB702C
:100730007B685B68FA78012101FA02F21A437B6850
:100740005A6000BF0C37BD4680BC704780B483B090
:1007500000AF78600B46FB707B689B68FA780121DC
:1007600001FA02F21A437B689A6000BF0C37BD465B
:1007700080BC704780B483B000AF78600B46FB70DC
:100780007B685B69FA78012101FA02F21A437B68FF
:100790005A6100BF0C37BD4680BC704780B483B03F
:1007A00000AF786039607B681A683B681A437B68E1
:1007B0001A6000BF0C37BD4680BC704780B400AFE4
:1007C000074B084A5A60064B4FF6FF729A60044B7B
:1007D0004FF404521A6000BFBD4680BC704700BF92
:1007E0000020054020C528D980B400AF034B044A3F
:1007F0005A6000BFBD4680BC704700BF0020054066
:1008000002A680B480B400AF00BFBD4680BC704774
:1008100080B400AFFEE780B400AFFEE780B400AF65
:10082000FEE780B400AFFEE780B400AFFEE780B41F
:1008300000AFFEE780B400AFFEE780B400AFFEE794
:1008400080B400AFFEE780B400AFFEE780B400AF35
:10085000064B4FF08042C3F82421044B4FF08042F6
:10086000C3F8282100BFBD4680BC70470050064039
:0400000300000411E4
:00000001FF
